{
  "contractName": "Election",
  "abi": [
    {
      "constant": false,
      "inputs": [],
      "name": "getAllCandidates",
      "outputs": [
        {
          "name": "",
          "type": "bytes32[]"
        }
      ],
      "payable": false,
      "stateMutability": "nonpayable",
      "type": "function"
    },
    {
      "anonymous": false,
      "inputs": [
        {
          "indexed": false,
          "name": "candidateId",
          "type": "bytes32"
        },
        {
          "indexed": false,
          "name": "voteCount",
          "type": "uint256"
        },
        {
          "indexed": false,
          "name": "voter",
          "type": "address"
        }
      ],
      "name": "onVoteCasted",
      "type": "event"
    },
    {
      "anonymous": false,
      "inputs": [
        {
          "indexed": false,
          "name": "candidateId",
          "type": "bytes32"
        },
        {
          "indexed": false,
          "name": "name",
          "type": "string"
        },
        {
          "indexed": false,
          "name": "qualification",
          "type": "string"
        },
        {
          "indexed": false,
          "name": "voteCount",
          "type": "uint256"
        }
      ],
      "name": "onCandidateRegistered",
      "type": "event"
    },
    {
      "constant": false,
      "inputs": [
        {
          "name": "name",
          "type": "string"
        },
        {
          "name": "qualification",
          "type": "string"
        }
      ],
      "name": "registerCandidate",
      "outputs": [
        {
          "name": "",
          "type": "uint256"
        }
      ],
      "payable": false,
      "stateMutability": "nonpayable",
      "type": "function"
    },
    {
      "constant": false,
      "inputs": [
        {
          "name": "candidateId",
          "type": "bytes32"
        }
      ],
      "name": "vote",
      "outputs": [],
      "payable": false,
      "stateMutability": "nonpayable",
      "type": "function"
    },
    {
      "constant": false,
      "inputs": [
        {
          "name": "candidateId",
          "type": "bytes32"
        }
      ],
      "name": "getCandidate",
      "outputs": [
        {
          "name": "name",
          "type": "string"
        },
        {
          "name": "voteCount",
          "type": "uint256"
        },
        {
          "name": "id",
          "type": "bytes32"
        },
        {
          "name": "qualification",
          "type": "string"
        }
      ],
      "payable": false,
      "stateMutability": "nonpayable",
      "type": "function"
    }
  ],
  "bytecode": "0x608060405234801561001057600080fd5b50610b20806100206000396000f300608060405260043610610062576000357c0100000000000000000000000000000000000000000000000000000000900463ffffffff1680630dbce4dd146100675780632e6997fe146100ce578063a69beaba1461013a578063dfb6419f1461016b575b600080fd5b34801561007357600080fd5b506100b8600480360381019080803590602001908201803590602001919091929391929390803590602001908201803590602001919091929391929390505050610297565b6040518082815260200191505060405180910390f35b3480156100da57600080fd5b506100e36103a7565b6040518080602001828103825283818151815260200191508051906020019060200280838360005b8381101561012657808201518184015260208101905061010b565b505050509050019250505060405180910390f35b34801561014657600080fd5b506101696004803603810190808035600019169060200190929190505050610467565b005b34801561017757600080fd5b5061019a60048036038101908080356000191690602001909291905050506105ae565b6040518080602001858152602001846000191660001916815260200180602001838103835287818151815260200191508051906020019080838360005b838110156101f25780820151818401526020810190506101d7565b50505050905090810190601f16801561021f5780820380516001836020036101000a031916815260200191505b50838103825284818151815260200191508051906020019080838360005b8381101561025857808201518184015260208101905061023d565b50505050905090810190601f1680156102855780820380516001836020036101000a031916815260200191505b50965050505050505060405180910390f35b60008061030886868080601f01602080910402602001604051908101604052809392919081815260200183838082843782019150505050505085858080601f01602080910402602001604051908101604052809392919081815260200183838082843782019150505050505061079f565b90507ff1214bbf08b1963f54619eb140fb4cbb310ae19d4c32bdd5eedf55efbb753db681878787876000604051808760001916600019168152602001806020018060200184815260200183810383528888828181526020019250808284378201915050838103825286868281815260200192508082843782019150509850505050505050505060405180910390a1600080549050915050949350505050565b6060600080600090505b60008054905081101561040c576000818154811015156103cd57fe5b90600052602060002090600402016003015482828154811015156103ed57fe5b90600052602060002001816000191690555080806001019150506103b1565b8180548060200260200160405190810160405280929190818152602001828054801561045b57602002820191906000526020600020905b81546000191681526020019060010190808311610443575b50505050509250505090565b60006001600083600019166000191681526020019081526020016000205490506001600360003373ffffffffffffffffffffffffffffffffffffffff1673ffffffffffffffffffffffffffffffffffffffff16815260200190815260200160002060006101000a81548160ff0219169083151502179055506000818154811015156104ee57fe5b9060005260206000209060040201600201600081548092919060010191905055507f7fbb562cbd2957ef094b108700c230872691e1e67d50ba5e64a0639acbe3ae618260008381548110151561054057fe5b906000526020600020906004020160020154336040518084600019166000191681526020018381526020018273ffffffffffffffffffffffffffffffffffffffff1673ffffffffffffffffffffffffffffffffffffffff168152602001935050505060405180910390a15050565b6060600080606060006001600087600019166000191681526020019081526020016000205490506000818154811015156105e457fe5b906000526020600020906004020160000160008281548110151561060457fe5b90600052602060002090600402016002015460008381548110151561062557fe5b90600052602060002090600402016003015460008481548110151561064657fe5b9060005260206000209060040201600101838054600181600116156101000203166002900480601f0160208091040260200160405190810160405280929190818152602001828054600181600116156101000203166002900480156106ec5780601f106106c1576101008083540402835291602001916106ec565b820191906000526020600020905b8154815290600101906020018083116106cf57829003601f168201915b50505050509350808054600181600116156101000203166002900480601f0160208091040260200160405190810160405280929190818152602001828054600181600116156101000203166002900480156107885780601f1061075d57610100808354040283529160200191610788565b820191906000526020600020905b81548152906001019060200180831161076b57829003601f168201915b505050505090509450945094509450509193509193565b60008060006107ac610a23565b600080549050925042838787336040518086815260200185815260200184805190602001908083835b6020831015156107fa57805182526020820191506020810190506020830392506107d5565b6001836020036101000a03801982511681845116808217855250505050505090500183805190602001908083835b60208310151561084d5780518252602082019150602081019050602083039250610828565b6001836020036101000a0380198251168184511680821785525050505050509050018273ffffffffffffffffffffffffffffffffffffffff1673ffffffffffffffffffffffffffffffffffffffff166c01000000000000000000000000028152601401807f61646443616e6469646174650000000000000000000000000000000000000000815250600c01955050505050506040518091039020915085816000018190525084816020018190525060008160400181815250508181606001906000191690816000191681525050600081908060018154018082558091505090600182039060005260206000209060040201600090919290919091506000820151816000019080519060200190610964929190610a4f565b506020820151816001019080519060200190610981929190610a4f565b5060408201518160020155606082015181600301906000191690555050506001600260003373ffffffffffffffffffffffffffffffffffffffff1673ffffffffffffffffffffffffffffffffffffffff16815260200190815260200160002060006101000a81548160ff021916908315150217905550826001600084600019166000191681526020019081526020016000208190555081935050505092915050565b608060405190810160405280606081526020016060815260200160008152602001600080191681525090565b828054600181600116156101000203166002900490600052602060002090601f016020900481019282601f10610a9057805160ff1916838001178555610abe565b82800160010185558215610abe579182015b82811115610abd578251825591602001919060010190610aa2565b5b509050610acb9190610acf565b5090565b610af191905b80821115610aed576000816000905550600101610ad5565b5090565b905600a165627a7a7230582048abb192e1840e3df2f8ee6fc75e54046b51686a0a5d3a27ce065a3441047dbc0029",
  "source": "pragma solidity ^0.4.18;\n\nimport \"./AbstElection.sol\";\n\n\ncontract Election is AbstElection {\n\n    function registerCandidate(string name, string qualification) external returns (uint256) {\n        // require(!candidatesIdMap[msg.sender]);\n        bytes32 index = addCandidate(name, qualification);\n\n        emit onCandidateRegistered(index, name, qualification, 0);\n\n        return candidates.length;\n    }\n\n    function vote(bytes32 candidateId) external {\n        uint256 _candidateId = candidatesMap[candidateId];\n\n        // require(!voters[msg.sender]);\n        // require(_candidateId > 0 && _candidateId <= candidates.length);\n\n        voters[msg.sender] = true;\n\n        candidates[_candidateId].voteCount++;\n\n        emit onVoteCasted (candidateId, candidates[_candidateId].voteCount, msg.sender);\n    }\n\n    function getCandidate(bytes32 candidateId) external returns (string name, uint256 voteCount, bytes32 id, string qualification) {\n        uint256 _candidateId = candidatesMap[candidateId];\n        return (candidates[_candidateId].name, candidates[_candidateId].voteCount, candidates[_candidateId].id, candidates[_candidateId].qualification);\n    }\n}\n",
  "sourcePath": "/home/ash_mishra/election/smart-contract/contracts/Election.sol",
  "compiler": {
    "name": "solc",
    "version": "0.4.25+commit.59dbf8f1.Emscripten.clang"
  },
  "schemaVersion": "2.0.2",
  "updatedAt": "2020-04-16T20:32:58.102Z"
}