{
  "contractName": "Election",
  "abi": [
    {
      "constant": false,
      "inputs": [],
      "name": "getAllCandidates",
      "outputs": [
        {
          "name": "",
          "type": "bytes32[]"
        }
      ],
      "payable": false,
      "stateMutability": "nonpayable",
      "type": "function"
    },
    {
      "constant": true,
      "inputs": [
        {
          "name": "",
          "type": "uint256"
        }
      ],
      "name": "candidates",
      "outputs": [
        {
          "name": "name",
          "type": "string"
        },
        {
          "name": "voteCount",
          "type": "uint256"
        },
        {
          "name": "id",
          "type": "bytes32"
        }
      ],
      "payable": false,
      "stateMutability": "view",
      "type": "function"
    },
    {
      "constant": false,
      "inputs": [
        {
          "name": "_name",
          "type": "string"
        }
      ],
      "name": "addCandidate",
      "outputs": [],
      "payable": false,
      "stateMutability": "nonpayable",
      "type": "function"
    },
    {
      "constant": true,
      "inputs": [
        {
          "name": "",
          "type": "bytes32"
        }
      ],
      "name": "candidatesMap",
      "outputs": [
        {
          "name": "",
          "type": "uint256"
        }
      ],
      "payable": false,
      "stateMutability": "view",
      "type": "function"
    },
    {
      "constant": true,
      "inputs": [
        {
          "name": "",
          "type": "address"
        }
      ],
      "name": "voters",
      "outputs": [
        {
          "name": "",
          "type": "bool"
        }
      ],
      "payable": false,
      "stateMutability": "view",
      "type": "function"
    },
    {
      "constant": true,
      "inputs": [],
      "name": "candidateCount",
      "outputs": [
        {
          "name": "",
          "type": "uint256"
        }
      ],
      "payable": false,
      "stateMutability": "view",
      "type": "function"
    },
    {
      "inputs": [],
      "payable": false,
      "stateMutability": "nonpayable",
      "type": "constructor"
    },
    {
      "constant": false,
      "inputs": [
        {
          "name": "candidateId",
          "type": "bytes32"
        }
      ],
      "name": "vote",
      "outputs": [],
      "payable": false,
      "stateMutability": "nonpayable",
      "type": "function"
    }
  ],
  "bytecode": "0x608060405234801561001057600080fd5b5061005e6040805190810160405280600b81526020017f43616e64696461746520310000000000000000000000000000000000000000008152506100b0640100000000026401000000009004565b6100ab6040805190810160405280600b81526020017f43616e64696461746520320000000000000000000000000000000000000000008152506100b0640100000000026401000000009004565b6102c4565b60006100ba6101fa565b60026000815480929190600101919050555042600254846040518084815260200183815260200182805190602001908083835b60208310151561011257805182526020820191506020810190506020830392506100ed565b6001836020036101000a038019825116818451168082178552505050505050905001935050505060405180910390209150828160000181905250600081602001818152505081816040019060001916908160001916815250506000819080600181540180825580915050906001820390600052602060002090600302016000909192909190915060008201518160000190805190602001906101b592919061021f565b50602082015181600101556040820151816002019060001916905550505060025460016000846000191660001916815260200190815260200160002081905550505050565b6060604051908101604052806060815260200160008152602001600080191681525090565b828054600181600116156101000203166002900490600052602060002090601f016020900481019282601f1061026057805160ff191683800117855561028e565b8280016001018555821561028e579182015b8281111561028d578251825591602001919060010190610272565b5b50905061029b919061029f565b5090565b6102c191905b808211156102bd5760008160009055506001016102a5565b5090565b90565b6107f5806102d36000396000f300608060405260043610610083576000357c0100000000000000000000000000000000000000000000000000000000900463ffffffff1680632e6997fe146100885780633477ee2e146100f4578063462e91ec146101b05780635d71662f14610219578063a3ec138d1461025e578063a69beaba146102b9578063a9a981a3146102ea575b600080fd5b34801561009457600080fd5b5061009d610315565b6040518080602001828103825283818151815260200191508051906020019060200280838360005b838110156100e05780820151818401526020810190506100c5565b505050509050019250505060405180910390f35b34801561010057600080fd5b5061011f60048036038101908080359060200190929190505050610384565b60405180806020018481526020018360001916600019168152602001828103825285818151815260200191508051906020019080838360005b83811015610173578082015181840152602081019050610158565b50505050905090810190601f1680156101a05780820380516001836020036101000a031916815260200191505b5094505050505060405180910390f35b3480156101bc57600080fd5b50610217600480360381019080803590602001908201803590602001908080601f0160208091040260200160405190810160405280939291908181526020018383808284378201915050505050509192919290505050610455565b005b34801561022557600080fd5b50610248600480360381019080803560001916906020019092919050505061059f565b6040518082815260200191505060405180910390f35b34801561026a57600080fd5b5061029f600480360381019080803573ffffffffffffffffffffffffffffffffffffffff1690602001909291905050506105b7565b604051808215151515815260200191505060405180910390f35b3480156102c557600080fd5b506102e860048036038101908080356000191690602001909291905050506105d7565b005b3480156102f657600080fd5b506102ff6106f9565b6040518082815260200191505060405180910390f35b60608060008090505b60025481101561037c5760008181548110151561033757fe5b906000526020600020906003020160020154828281518110151561035757fe5b906020019060200201906000191690816000191681525050808060010191505061031e565b819250505090565b60008181548110151561039357fe5b9060005260206000209060030201600091509050806000018054600181600116156101000203166002900480601f01602080910402602001604051908101604052809291908181526020018280546001816001161561010002031660029004801561043f5780601f106104145761010080835404028352916020019161043f565b820191906000526020600020905b81548152906001019060200180831161042257829003601f168201915b5050505050908060010154908060020154905083565b600061045f6106ff565b60026000815480929190600101919050555042600254846040518084815260200183815260200182805190602001908083835b6020831015156104b75780518252602082019150602081019050602083039250610492565b6001836020036101000a0380198251168184511680821785525050505050509050019350505050604051809103902091508281600001819052506000816020018181525050818160400190600019169081600019168152505060008190806001815401808255809150509060018203906000526020600020906003020160009091929091909150600082015181600001908051906020019061055a929190610724565b50602082015181600101556040820151816002019060001916905550505060025460016000846000191660001916815260200190815260200160002081905550505050565b60016020528060005260406000206000915090505481565b60036020528060005260406000206000915054906101000a900460ff1681565b6000600160008360001916600019168152602001908152602001600020549050600360003373ffffffffffffffffffffffffffffffffffffffff1673ffffffffffffffffffffffffffffffffffffffff16815260200190815260200160002060009054906101000a900460ff1615151561065057600080fd5b60008111801561066257506002548111155b151561066d57600080fd5b6001600360003373ffffffffffffffffffffffffffffffffffffffff1673ffffffffffffffffffffffffffffffffffffffff16815260200190815260200160002060006101000a81548160ff0219169083151502179055506000818154811015156106d457fe5b9060005260206000209060030201600101600081548092919060010191905055505050565b60025481565b6060604051908101604052806060815260200160008152602001600080191681525090565b828054600181600116156101000203166002900490600052602060002090601f016020900481019282601f1061076557805160ff1916838001178555610793565b82800160010185558215610793579182015b82811115610792578251825591602001919060010190610777565b5b5090506107a091906107a4565b5090565b6107c691905b808211156107c25760008160009055506001016107aa565b5090565b905600a165627a7a7230582068492ead0e85b590eb91bf17fdf5e3a42f30bf528d1cca5f696459caca39d68c0029",
  "source": "pragma solidity ^0.4.18;\n\nimport \"./AbstElection.sol\";\n\n\ncontract Election is AbstElection {\n    function Election() public {\n        addCandidate(\"Candidate 1\");\n        addCandidate(\"Candidate 2\");\n    }\n\n    function vote(bytes32 candidateId) external {\n        uint256 _candidateId = candidatesMap[candidateId];\n\n        require(!voters[msg.sender]);\n        require(_candidateId > 0 && _candidateId <= candidateCount);\n\n        voters[msg.sender] = true;\n\n        candidates[_candidateId].voteCount++;\n    }\n}\n",
  "sourcePath": "/home/ash_mishra/election/smart-contract/contracts/Election.sol",
  "compiler": {
    "name": "solc",
    "version": "0.4.25+commit.59dbf8f1.Emscripten.clang"
  },
  "schemaVersion": "2.0.2",
  "updatedAt": "2020-03-31T20:47:21.824Z"
}