{
  "contractName": "Election",
  "abi": [
    {
      "constant": false,
      "inputs": [
        {
          "name": "_name",
          "type": "string"
        }
      ],
      "name": "addCandidate",
      "outputs": [],
      "payable": false,
      "stateMutability": "nonpayable",
      "type": "function"
    },
    {
      "constant": true,
      "inputs": [
        {
          "name": "",
          "type": "bytes32"
        }
      ],
      "name": "candidatesMap",
      "outputs": [
        {
          "name": "",
          "type": "uint256"
        }
      ],
      "payable": false,
      "stateMutability": "view",
      "type": "function"
    },
    {
      "constant": true,
      "inputs": [
        {
          "name": "",
          "type": "address"
        }
      ],
      "name": "voters",
      "outputs": [
        {
          "name": "",
          "type": "bool"
        }
      ],
      "payable": false,
      "stateMutability": "view",
      "type": "function"
    },
    {
      "constant": true,
      "inputs": [],
      "name": "candidateCount",
      "outputs": [
        {
          "name": "",
          "type": "uint256"
        }
      ],
      "payable": false,
      "stateMutability": "view",
      "type": "function"
    },
    {
      "inputs": [],
      "payable": false,
      "stateMutability": "nonpayable",
      "type": "constructor"
    },
    {
      "constant": false,
      "inputs": [
        {
          "name": "candidateId",
          "type": "bytes32"
        }
      ],
      "name": "vote",
      "outputs": [],
      "payable": false,
      "stateMutability": "nonpayable",
      "type": "function"
    }
  ],
  "bytecode": "0x608060405234801561001057600080fd5b5061005e6040805190810160405280600b81526020017f43616e64696461746520310000000000000000000000000000000000000000008152506100b0640100000000026401000000009004565b6100ab6040805190810160405280600b81526020017f43616e64696461746520320000000000000000000000000000000000000000008152506100b0640100000000026401000000009004565b61028d565b60006100ba6101ce565b600260008154809291906001019190505550600254836040518083815260200182805190602001908083835b60208310151561010b57805182526020820191506020810190506020830392506100e6565b6001836020036101000a038019825116818451168082178552505050505050905001925050506040518091039020915082816000018190525060008160200181815250506000819080600181540180825580915050906001820390600052602060002090600202016000909192909190915060008201518160000190805190602001906101999291906101e8565b506020820151816001015550505060025460016000846000191660001916815260200190815260200160002081905550505050565b604080519081016040528060608152602001600081525090565b828054600181600116156101000203166002900490600052602060002090601f016020900481019282601f1061022957805160ff1916838001178555610257565b82800160010185558215610257579182015b8281111561025657825182559160200191906001019061023b565b5b5090506102649190610268565b5090565b61028a91905b8082111561028657600081600090555060010161026e565b5090565b90565b6105408061029c6000396000f30060806040526004361061006d576000357c0100000000000000000000000000000000000000000000000000000000900463ffffffff168063462e91ec146100725780635d71662f146100db578063a3ec138d14610120578063a69beaba1461017b578063a9a981a3146101ac575b600080fd5b34801561007e57600080fd5b506100d9600480360381019080803590602001908201803590602001908080601f01602080910402602001604051908101604052809392919081815260200183838082843782019150505050505091929192905050506101d7565b005b3480156100e757600080fd5b5061010a60048036038101908080356000191690602001909291905050506102f5565b6040518082815260200191505060405180910390f35b34801561012c57600080fd5b50610161600480360381019080803573ffffffffffffffffffffffffffffffffffffffff16906020019092919050505061030d565b604051808215151515815260200191505060405180910390f35b34801561018757600080fd5b506101aa600480360381019080803560001916906020019092919050505061032d565b005b3480156101b857600080fd5b506101c161044f565b6040518082815260200191505060405180910390f35b60006101e1610455565b600260008154809291906001019190505550600254836040518083815260200182805190602001908083835b602083101515610232578051825260208201915060208101905060208303925061020d565b6001836020036101000a038019825116818451168082178552505050505050905001925050506040518091039020915082816000018190525060008160200181815250506000819080600181540180825580915050906001820390600052602060002090600202016000909192909190915060008201518160000190805190602001906102c092919061046f565b506020820151816001015550505060025460016000846000191660001916815260200190815260200160002081905550505050565b60016020528060005260406000206000915090505481565b60036020528060005260406000206000915054906101000a900460ff1681565b6000600160008360001916600019168152602001908152602001600020549050600360003373ffffffffffffffffffffffffffffffffffffffff1673ffffffffffffffffffffffffffffffffffffffff16815260200190815260200160002060009054906101000a900460ff161515156103a657600080fd5b6000811180156103b857506002548111155b15156103c357600080fd5b6001600360003373ffffffffffffffffffffffffffffffffffffffff1673ffffffffffffffffffffffffffffffffffffffff16815260200190815260200160002060006101000a81548160ff02191690831515021790555060008181548110151561042a57fe5b9060005260206000209060020201600101600081548092919060010191905055505050565b60025481565b604080519081016040528060608152602001600081525090565b828054600181600116156101000203166002900490600052602060002090601f016020900481019282601f106104b057805160ff19168380011785556104de565b828001600101855582156104de579182015b828111156104dd5782518255916020019190600101906104c2565b5b5090506104eb91906104ef565b5090565b61051191905b8082111561050d5760008160009055506001016104f5565b5090565b905600a165627a7a7230582058d5a246e345330241a99c17db783671c083fe6e646ba17f320502f23bf07f900029",
  "source": "pragma solidity ^0.4.18;\n\nimport \"./AbstElection.sol\";\n\n\ncontract Election is AbstElection {\n    function Election() public {\n        addCandidate(\"Candidate 1\");\n        addCandidate(\"Candidate 2\");\n    }\n\n    function vote(bytes32 candidateId) external {\n        uint256 _candidateId = candidatesMap[candidateId];\n\n        require(!voters[msg.sender]);\n        require(_candidateId > 0 && _candidateId <= candidateCount);\n\n        voters[msg.sender] = true;\n\n        candidates[_candidateId].voteCount++;\n    }\n}\n",
  "sourcePath": "/home/ash_mishra/election/smart-contract/contracts/Election.sol",
  "compiler": {
    "name": "solc",
    "version": "0.4.25+commit.59dbf8f1.Emscripten.clang"
  },
  "schemaVersion": "2.0.2",
  "updatedAt": "2020-03-29T20:45:15.023Z"
}