{
  "contractName": "Election",
  "abi": [
    {
      "constant": false,
      "inputs": [],
      "name": "getAllCandidates",
      "outputs": [
        {
          "name": "",
          "type": "bytes32[]"
        }
      ],
      "payable": false,
      "stateMutability": "nonpayable",
      "type": "function"
    },
    {
      "constant": false,
      "inputs": [
        {
          "name": "_name",
          "type": "string"
        }
      ],
      "name": "addCandidate",
      "outputs": [],
      "payable": false,
      "stateMutability": "nonpayable",
      "type": "function"
    },
    {
      "inputs": [],
      "payable": false,
      "stateMutability": "nonpayable",
      "type": "constructor"
    },
    {
      "constant": false,
      "inputs": [
        {
          "name": "candidateId",
          "type": "bytes32"
        }
      ],
      "name": "vote",
      "outputs": [],
      "payable": false,
      "stateMutability": "nonpayable",
      "type": "function"
    },
    {
      "constant": false,
      "inputs": [
        {
          "name": "candidateId",
          "type": "bytes32"
        }
      ],
      "name": "getCandidate",
      "outputs": [
        {
          "name": "name",
          "type": "string"
        },
        {
          "name": "voteCount",
          "type": "uint256"
        },
        {
          "name": "id",
          "type": "bytes32"
        }
      ],
      "payable": false,
      "stateMutability": "nonpayable",
      "type": "function"
    }
  ],
  "bytecode": "0x608060405234801561001057600080fd5b5061005e6040805190810160405280600b81526020017f43616e64696461746520310000000000000000000000000000000000000000008152506100b0640100000000026401000000009004565b6100ab6040805190810160405280600b81526020017f43616e64696461746520320000000000000000000000000000000000000000008152506100b0640100000000026401000000009004565b6102e0565b6000806100bb610216565b60008054905092504283856040518084815260200183815260200182805190602001908083835b60208310151561010757805182526020820191506020810190506020830392506100e2565b6001836020036101000a038019825116818451168082178552505050505050905001807f61646443616e6469646174650000000000000000000000000000000000000000815250600c01935050505060405180910390209150838160000181905250600081602001818152505081816040019060001916908160001916815250506000819080600181540180825580915050906001820390600052602060002090600302016000909192909190915060008201518160000190805190602001906101d292919061023b565b506020820151816001015560408201518160020190600019169055505050826001600084600019166000191681526020019081526020016000208190555050505050565b6060604051908101604052806060815260200160008152602001600080191681525090565b828054600181600116156101000203166002900490600052602060002090601f016020900481019282601f1061027c57805160ff19168380011785556102aa565b828001600101855582156102aa579182015b828111156102a957825182559160200191906001019061028e565b5b5090506102b791906102bb565b5090565b6102dd91905b808211156102d95760008160009055506001016102c1565b5090565b90565b61077f806102ef6000396000f300608060405260043610610062576000357c0100000000000000000000000000000000000000000000000000000000900463ffffffff1680632e6997fe14610067578063462e91ec146100d3578063a69beaba1461013c578063dfb6419f1461016d575b600080fd5b34801561007357600080fd5b5061007c61022d565b6040518080602001828103825283818151815260200191508051906020019060200280838360005b838110156100bf5780820151818401526020810190506100a4565b505050509050019250505060405180910390f35b3480156100df57600080fd5b5061013a600480360381019080803590602001908201803590602001908080601f01602080910402602001604051908101604052809392919081815260200183838082843782019150505050505091929192905050506102ed565b005b34801561014857600080fd5b5061016b6004803603810190808035600019169060200190929190505050610453565b005b34801561017957600080fd5b5061019c6004803603810190808035600019169060200190929190505050610558565b60405180806020018481526020018360001916600019168152602001828103825285818151815260200191508051906020019080838360005b838110156101f05780820151818401526020810190506101d5565b50505050905090810190601f16801561021d5780820380516001836020036101000a031916815260200191505b5094505050505060405180910390f35b6060600080600090505b6000805490508110156102925760008181548110151561025357fe5b906000526020600020906003020160020154828281548110151561027357fe5b9060005260206000200181600019169055508080600101915050610237565b818054806020026020016040519081016040528092919081815260200182805480156102e157602002820191906000526020600020905b815460001916815260200190600101908083116102c9575b50505050509250505090565b6000806102f8610689565b60008054905092504283856040518084815260200183815260200182805190602001908083835b602083101515610344578051825260208201915060208101905060208303925061031f565b6001836020036101000a038019825116818451168082178552505050505050905001807f61646443616e6469646174650000000000000000000000000000000000000000815250600c019350505050604051809103902091508381600001819052506000816020018181525050818160400190600019169081600019168152505060008190806001815401808255809150509060018203906000526020600020906003020160009091929091909150600082015181600001908051906020019061040f9291906106ae565b506020820151816001015560408201518160020190600019169055505050826001600084600019166000191681526020019081526020016000208190555050505050565b6000600160008360001916600019168152602001908152602001600020549050600260003373ffffffffffffffffffffffffffffffffffffffff1673ffffffffffffffffffffffffffffffffffffffff16815260200190815260200160002060009054906101000a900460ff161515156104cc57600080fd5b6001600260003373ffffffffffffffffffffffffffffffffffffffff1673ffffffffffffffffffffffffffffffffffffffff16815260200190815260200160002060006101000a81548160ff02191690831515021790555060008181548110151561053357fe5b9060005260206000209060030201600101600081548092919060010191905055505050565b6060600080600060016000866000191660001916815260200190815260200160002054905060008181548110151561058c57fe5b90600052602060002090600302016000016000828154811015156105ac57fe5b9060005260206000209060030201600101546000838154811015156105cd57fe5b906000526020600020906003020160020154828054600181600116156101000203166002900480601f0160208091040260200160405190810160405280929190818152602001828054600181600116156101000203166002900480156106745780601f1061064957610100808354040283529160200191610674565b820191906000526020600020905b81548152906001019060200180831161065757829003601f168201915b50505050509250935093509350509193909250565b6060604051908101604052806060815260200160008152602001600080191681525090565b828054600181600116156101000203166002900490600052602060002090601f016020900481019282601f106106ef57805160ff191683800117855561071d565b8280016001018555821561071d579182015b8281111561071c578251825591602001919060010190610701565b5b50905061072a919061072e565b5090565b61075091905b8082111561074c576000816000905550600101610734565b5090565b905600a165627a7a72305820922fdcce1b6f51d3bff024c10e929c1a79f93ddc9c829249faa2b2daa1aeddf50029",
  "source": "pragma solidity ^0.4.18;\n\nimport \"./AbstElection.sol\";\n\n\ncontract Election is AbstElection {\n    function Election() public {\n        addCandidate(\"Candidate 1\");\n        addCandidate(\"Candidate 2\");\n    }\n\n    function vote(bytes32 candidateId) external {\n        uint256 _candidateId = candidatesMap[candidateId];\n\n        require(!voters[msg.sender]);\n        // require(_candidateId > 0 && _candidateId <= candidates.length);\n\n        voters[msg.sender] = true;\n\n        candidates[_candidateId].voteCount++;\n    }\n\n    function getCandidate(bytes32 candidateId) external returns (string name, uint256 voteCount, bytes32 id) {\n        uint256 _candidateId = candidatesMap[candidateId];\n        return (candidates[_candidateId].name, candidates[_candidateId].voteCount, candidates[_candidateId].id);\n    }\n}\n",
  "sourcePath": "/home/ash_mishra/election/smart-contract/contracts/Election.sol",
  "compiler": {
    "name": "solc",
    "version": "0.4.25+commit.59dbf8f1.Emscripten.clang"
  },
  "schemaVersion": "2.0.2",
  "updatedAt": "2020-04-01T19:57:53.116Z"
}