{
  "contractName": "Election",
  "abi": [
    {
      "constant": true,
      "inputs": [
        {
          "name": "",
          "type": "uint256"
        }
      ],
      "name": "candidates",
      "outputs": [
        {
          "name": "name",
          "type": "string"
        },
        {
          "name": "voteCount",
          "type": "uint256"
        }
      ],
      "payable": false,
      "stateMutability": "view",
      "type": "function"
    },
    {
      "constant": false,
      "inputs": [
        {
          "name": "_name",
          "type": "string"
        }
      ],
      "name": "addCandidate",
      "outputs": [],
      "payable": false,
      "stateMutability": "nonpayable",
      "type": "function"
    },
    {
      "constant": true,
      "inputs": [
        {
          "name": "",
          "type": "bytes32"
        }
      ],
      "name": "candidatesMap",
      "outputs": [
        {
          "name": "",
          "type": "uint256"
        }
      ],
      "payable": false,
      "stateMutability": "view",
      "type": "function"
    },
    {
      "constant": true,
      "inputs": [
        {
          "name": "",
          "type": "address"
        }
      ],
      "name": "voters",
      "outputs": [
        {
          "name": "",
          "type": "bool"
        }
      ],
      "payable": false,
      "stateMutability": "view",
      "type": "function"
    },
    {
      "constant": true,
      "inputs": [],
      "name": "candidateCount",
      "outputs": [
        {
          "name": "",
          "type": "uint256"
        }
      ],
      "payable": false,
      "stateMutability": "view",
      "type": "function"
    },
    {
      "inputs": [],
      "payable": false,
      "stateMutability": "nonpayable",
      "type": "constructor"
    },
    {
      "constant": false,
      "inputs": [
        {
          "name": "candidateId",
          "type": "bytes32"
        }
      ],
      "name": "vote",
      "outputs": [],
      "payable": false,
      "stateMutability": "nonpayable",
      "type": "function"
    }
  ],
  "bytecode": "0x608060405234801561001057600080fd5b5061005e6040805190810160405280600b81526020017f43616e64696461746520310000000000000000000000000000000000000000008152506100b0640100000000026401000000009004565b6100ab6040805190810160405280600b81526020017f43616e64696461746520320000000000000000000000000000000000000000008152506100b0640100000000026401000000009004565b610295565b60006100ba6101d6565b60026000815480929190600101919050555042600254846040518084815260200183815260200182805190602001908083835b60208310151561011257805182526020820191506020810190506020830392506100ed565b6001836020036101000a03801982511681845116808217855250505050505090500193505050506040518091039020915082816000018190525060008160200181815250506000819080600181540180825580915050906001820390600052602060002090600202016000909192909190915060008201518160000190805190602001906101a19291906101f0565b506020820151816001015550505060025460016000846000191660001916815260200190815260200160002081905550505050565b604080519081016040528060608152602001600081525090565b828054600181600116156101000203166002900490600052602060002090601f016020900481019282601f1061023157805160ff191683800117855561025f565b8280016001018555821561025f579182015b8281111561025e578251825591602001919060010190610243565b5b50905061026c9190610270565b5090565b61029291905b8082111561028e576000816000905550600101610276565b5090565b90565b6106cb806102a46000396000f300608060405260043610610078576000357c0100000000000000000000000000000000000000000000000000000000900463ffffffff1680633477ee2e1461007d578063462e91ec1461012a5780635d71662f14610193578063a3ec138d146101d8578063a69beaba14610233578063a9a981a314610264575b600080fd5b34801561008957600080fd5b506100a86004803603810190808035906020019092919050505061028f565b6040518080602001838152602001828103825284818151815260200191508051906020019080838360005b838110156100ee5780820151818401526020810190506100d3565b50505050905090810190601f16801561011b5780820380516001836020036101000a031916815260200191505b50935050505060405180910390f35b34801561013657600080fd5b50610191600480360381019080803590602001908201803590602001908080601f016020809104026020016040519081016040528093929190818152602001838380828437820191505050505050919291929050505061035a565b005b34801561019f57600080fd5b506101c26004803603810190808035600019169060200190929190505050610480565b6040518082815260200191505060405180910390f35b3480156101e457600080fd5b50610219600480360381019080803573ffffffffffffffffffffffffffffffffffffffff169060200190929190505050610498565b604051808215151515815260200191505060405180910390f35b34801561023f57600080fd5b5061026260048036038101908080356000191690602001909291905050506104b8565b005b34801561027057600080fd5b506102796105da565b6040518082815260200191505060405180910390f35b60008181548110151561029e57fe5b9060005260206000209060020201600091509050806000018054600181600116156101000203166002900480601f01602080910402602001604051908101604052809291908181526020018280546001816001161561010002031660029004801561034a5780601f1061031f5761010080835404028352916020019161034a565b820191906000526020600020905b81548152906001019060200180831161032d57829003601f168201915b5050505050908060010154905082565b60006103646105e0565b60026000815480929190600101919050555042600254846040518084815260200183815260200182805190602001908083835b6020831015156103bc5780518252602082019150602081019050602083039250610397565b6001836020036101000a038019825116818451168082178552505050505050905001935050505060405180910390209150828160000181905250600081602001818152505060008190806001815401808255809150509060018203906000526020600020906002020160009091929091909150600082015181600001908051906020019061044b9291906105fa565b506020820151816001015550505060025460016000846000191660001916815260200190815260200160002081905550505050565b60016020528060005260406000206000915090505481565b60036020528060005260406000206000915054906101000a900460ff1681565b6000600160008360001916600019168152602001908152602001600020549050600360003373ffffffffffffffffffffffffffffffffffffffff1673ffffffffffffffffffffffffffffffffffffffff16815260200190815260200160002060009054906101000a900460ff1615151561053157600080fd5b60008111801561054357506002548111155b151561054e57600080fd5b6001600360003373ffffffffffffffffffffffffffffffffffffffff1673ffffffffffffffffffffffffffffffffffffffff16815260200190815260200160002060006101000a81548160ff0219169083151502179055506000818154811015156105b557fe5b9060005260206000209060020201600101600081548092919060010191905055505050565b60025481565b604080519081016040528060608152602001600081525090565b828054600181600116156101000203166002900490600052602060002090601f016020900481019282601f1061063b57805160ff1916838001178555610669565b82800160010185558215610669579182015b8281111561066857825182559160200191906001019061064d565b5b509050610676919061067a565b5090565b61069c91905b80821115610698576000816000905550600101610680565b5090565b905600a165627a7a723058204847dbd5bb7c069e13718e30cad78d572cee96bd69d86a6ca18424315aaef1140029",
  "source": "pragma solidity ^0.4.18;\n\nimport \"./AbstElection.sol\";\n\n\ncontract Election is AbstElection {\n    function Election() public {\n        addCandidate(\"Candidate 1\");\n        addCandidate(\"Candidate 2\");\n    }\n\n    function vote(bytes32 candidateId) external {\n        uint256 _candidateId = candidatesMap[candidateId];\n\n        require(!voters[msg.sender]);\n        require(_candidateId > 0 && _candidateId <= candidateCount);\n\n        voters[msg.sender] = true;\n\n        candidates[_candidateId].voteCount++;\n    }\n}\n",
  "sourcePath": "/home/ash_mishra/election/smart-contract/contracts/Election.sol",
  "compiler": {
    "name": "solc",
    "version": "0.4.25+commit.59dbf8f1.Emscripten.clang"
  },
  "schemaVersion": "2.0.2",
  "updatedAt": "2020-03-29T21:38:02.687Z"
}